:020000041000EA
:10000000002000081B0100100D0000007D01001001
:1000100000000000000000000000000000000000E0
:100020000000000000000000000000007901001046
:1000300000000000000000007901001079010010AC
:100040007901001079010010790100107901001088
:100050007901001079010010790100107901001078
:100060007901001079010010790100107901001068
:100070007901001079010010790100107901001058
:100080000448054B10B5834203D0044B002B00D02D
:10009000984710BD780300087803000800000000AE
:1000A00006480749091A8B10C90FC91810B549101D
:1000B00003D0044B002B00D0984710BD78030008F4
:1000C000780300080000000010B5074C2378002BCF
:1000D00009D1FFF7D5FF054B002B02D0044800E003
:1000E00000BF0123237010BDB00300080000000012
:1000F00094150010054B10B5002B03D0044905489A
:1001000000E000BFFFF7CCFF10BDC04600000000BC
:10011000B4030008941500107047FFF7FDFF72B696
:100120000F4C104DAC4209DA21686268A368043BA9
:1001300002DBC858D050FAE70C34F3E70A490B4AFF
:100140000020521A02DD043A8850FCDC08480949B4
:100150000860BFF34F8F00F06FF800F01DF8FEE766
:10016000A0150010B8150010B0030008C80500085D
:100170000000000808ED00E0FEE7FEE700B50420FF
:100180007146084202D0EFF3098002E0EFF30880E5
:10019000043000F0BBFDFEE710B562B6034800F086
:1001A000C3F8002000F0BAFEFBE7C04600200010B4
:1001B00010B5002000F090FA10BD704770B5002017
:1001C00000F0EEFC041E28D0144B186000F064FB15
:1001D000411C200000F080FF114B0400186000F06B
:1001E0004DFB411C200000F077FF04000D4B013C4B
:1001F00018600D49200000F06FFFFA210B4D01300F
:1002000028708900200000F067FF094D0130286048
:10021000002000F0C5FC074B186070BD8800000886
:100220008C0000088000000840420F009400000885
:10023000900000088400000810B5204800F0ACF8D9
:10024000B022E02130201E4CD200A35889005B0070
:100250005B08A35063588343635080235B04A3501F
:10026000184B194AE250A02204339201E250FF22B7
:10027000164BE25000F014FFC02201215200A35897
:100280008B43A350FFF799FFFFF798FF104B032014
:100290001A681300BA33198807234B43126A802166
:1002A0009B180022DA605A600A4A00F05FFA0A4896
:1002B00000F022F9094800F05BF910BDD4140010D9
:1002C0000000264084050000010002008C050000AB
:1002D0004C05000878030008CC030008A0140010A7
:1002E0009023034A5B01D058032318407047C0464F
:1002F0000000204010B5902400F047F8074B64013F
:100300001959074A1140074A0A431A5110225968DD
:100310001142FCD000F03DF810BDC0460000204066
:10032000FCFF00000100FA05F8B590260E4C76019E
:10033000070000F02AF8A3590500DB439B0701D111
:10034000FFF7D8FF80239B00E750A259074B1A40C4
:10035000074B1343A351102362681A42FCD02800B4
:1003600000F017F8F8BDC04600002040FCFF000078
:100370000300FA05000000000230800803D00130BD
:100380000238FCD1C046C0467047EFF3108072B609
:10039000704780F310887047014B18607047C04663
:1003A0004C050008044B1B681A00BA3212881B6AFD
:1003B0005043C0187047C0464C050008A02300B544
:1003C0001B06984226D015D8802825D00AD8102898
:1003D00024D0402824D000280BD0154809E0A420C0
:1003E000C00306E08022134B520090421CD098427A
:1003F000F3D100BD104B984218D0104BC018042800
:10040000EBD800F05FFEECEA0F0305000C48F0E7C4
:100410000C48EEE70020ECE70B48EAE70B48E8E77A
:100420000B48E6E70B48E4E71800E2E7A020D7E72F
:10043000FF00520006005200090000A0FFFFFF0F5E
:10044000020052000300520005005200010050005B
:10045000020050000100520010B50020FFF7A2FF7B
:100460000A4B1C682300BC331B68C0180368002BB0
:100470000ADB074B1868FFF7A1FF012263689A6047
:100480009A68002AFCD110BD0248FCE74C05000820
:100490005005000802005000064B1B68BC331B6867
:1004A000C3181B68002B03DA89B241600020704733
:1004B0000148FCE74C05000801008A000368002B96
:1004C00004DA89B2C2608160002070470048FCE70E
:1004D00001008A00064B1B68BC331B68C3181B68ED
:1004E000002B03DAC36800200B6070470148FCE76B
:1004F0004C05000801008A00024B1A68002A00D14E
:100500001860704764050008F0B52C24154E44436C
:1005100030681F000019FF241E0A26402740124C95
:100520001B0C256807602C6A46608360BA352D88ED
:100530006F433F190761370080377F01E7190B4D83
:1005400076014761A4191F043B436419236000230B
:100550008361059BC2610162002B01D01B888381EE
:10056000F0BDC046640500084C05000808100000F6
:10057000F0B50400236987B0026841680393A3685B
:1005800004AD1732C0682B806A80039BA26A059174
:100590000095E16A266A676AFFF7B6FF00213B0013
:1005A0000A0030000091FFF7AFFF2800216B00F038
:1005B00077FB0022AB5E002B06DB1F2213401E3AA6
:1005C0009A401300014A136007B0F0BD00E100E05B
:1005D000F0B585B003931B4B16001C682C235843C1
:1005E0004B4320180769E418002F27D0A569002D78
:1005F00026D13B68002B23DA134B1B6834331B785E
:100600000193436801996068029300F0EBFD0122B9
:100610008A40336812049BB2134333600123FE60A7
:10062000A361039B01996362029800F0DBFD012343
:100630008B409BB2BB60280005B0F0BD034DFAE7CC
:10064000034DF8E7640500084C05000804028A0021
:1006500007028A0073B5002642690400D568019636
:100660002B0CB34221D01B0413601368194B006993
:100670001B68BC331B68C3181B68B34215DA01A999
:10068000FFF728FFB0420CD10198E26903681E0C05
:10069000DBB29A4205D9226A9B009B58002B00D0FE
:1006A000984731002069FFF7F7FEADB2002D09D061
:1006B00063691D6000251B68636AAB4205D09847DB
:1006C0006562A56163691B6873BDA36A002BF8D0DE
:1006D0009847F6E74C0500082C2310B54343034A1E
:1006E0001068C018FFF7B6FF10BDC04664050008CB
:1006F0001A4B70B51A680C00130033331B78834211
:100700002AD9002928D00D681F212B000B400D424B
:1007100022D11100BA310988126A48431900104DDC
:100720008018286022685209934210D30021FFF7F5
:10073000B3FE002122002868FFF7C0FE011E04D18D
:100740002868FFF7A9FE002800D0064870BD62683F
:100750009E00B1500133E5E70348F7E74C05000878
:100760006805000801018A0003018A000B0010B52A
:10077000002A0DD1002914D10B4A0C4C11680A0033
:10078000BA321288096A424352182260180010BD1A
:10079000002906D006490B604A60FFF7A9FF030055
:1007A000F4E7044BF2E7C0464C0500086805000872
:1007B0008803000803018A00F7B51B4F04003B685B
:1007C0000E00002B2BD0DB681A68824229D9002545
:1007D0005B680193A94202D1FFF7D7FD0500386895
:1007E0000368002B19DA1F23012223409A40640971
:1007F000019BA4001C1921680A420CD0914321607E
:1008000000240021FFF748FE002E02D12800FFF748
:10081000C0FD2000FEBD054CF3E7054CF4E7034C9A
:10082000F7E7044CF5E7C0466805000802018800B8
:100830000301880004018A000C4B1B68002B11D0B7
:10084000DB681A6882420FD959681F234209184091
:100850001E3B8340920050581840431E9841044B61
:10086000C01870470348FCE70348FAE7680500082A
:10087000000188000201880004018A00054B1B6802
:100880001A0088321B6812689B181868000AC0B2E8
:100890007047C0464C050008044B1B681A0088329C
:1008A0001B6812689B181868000E70474C050008FA
:1008B000034BE0308000C0588006800F7047C04670
:1008C00000002640024B18694007C00F7047C04621
:1008D00000002740A6220549D2008B580220DB43A6
:1008E0009B0702D00123885818407047000026401B
:1008F00010B5FFF7EFFF0023022801D1014B1B6861
:10090000180010BD70050008084A83009B18D0220B
:100910009200985807221040042806D1C022920065
:100920009B581F22FC30134018437047000026409C
:1009300010B5FFF7E9FF88235B0098421CD00BD865
:10094000012813D0022814D0431E9841104B404276
:100950001840104BC01810BD1223FF33984210D01E
:100960001423FF33984210D00020F4E70A4B186894
:10097000F1E7FFF7BDFFEEE7084A094BD058C00F7B
:1009800001E0FFF79FFFC003E5E7044A054BF5E7E9
:1009900000EE85FF00127A006C050008000026407A
:1009A0000C0500003C050000B023154ADB00D358BD
:1009B00010B59903DB01DB0F890BC371114B01608B
:1009C000D3580F24D904DB01DB0D0381B123DB00F5
:1009D000D358C90C81801900214081721909214026
:1009E000C172D9029B009B0F8373074BC90CD3586C
:1009F00081815A05DB01520FDB0D8271038210BD2C
:100A000000002640840500008C0500008030034B68
:100A1000FF308000C058C00F7047C046000026401D
:100A20000F4B421E1B683F331B78934216D9803010
:100A30007F220C4BFF308000C3581F201A400A70E1
:100A40001A0A02404A701A0C02408A701A01C24007
:100A500000209B009B0FCA700B7170470248FCE797
:100A60004C0500080000264001004A00F0B589B09E
:100A700003AD2800FFF798FFB0230026164ADB00DD
:100A8000D358B34224DAAB7B022B21D0AC88B442DA
:100A90001ED03000ED79039FFFF74AFF220033009C
:100AA00031000190681C00F0C3FB0C00050033000E
:100AB0003A003100019800F0BBFBE6076A083243B8
:100AC0006308801859412A00230000F091FB0600BA
:100AD000300009B0F0BDC04600002640F7B5234BFA
:100AE00006001B683F331B78002B08D000283BD042
:100AF000834204D36946FFF793FF041E01D000260A
:100B000032E03000FFF782FF2300002805D06B465B
:100B10001C79023C23005A1E93416A461778547888
:100B20009578002BEBD0002CE9D0002DE7D03000D9
:100B3000FFF7FEFE002306002A002000190000F047
:100B400077FB00230C0005003A003000190000F08C
:100B50006FFBE6076A0832436308801859412A0090
:100B6000230000F045FB06003000FEBD4C050008E8
:100B700010B5041E04D1FFF779FF002806D008E065
:100B8000064B1B683F331B78834203D22000FFF7DC
:100B9000CFFE10BDFFF7A2FFEFE7C0464C050008EF
:100BA00070B50500FFF784FEE035074BAD0004008B
:100BB000E8580F231840FFF7DBFF0123A3405B0831
:100BC0001818E04070BDC0460000264030B5FF2533
:100BD00003242A000440E400A24089012940D243B2
:100BE000A14083B200280ADBC0240B4B80088000A0
:100BF000C018A400035913400B43035130BD0F200C
:100C00000340083B05489B089B001B18D86902401D
:100C10000A43DA61F2E7C04600E100E000ED00E0DF
:100C2000144B30B51B6807241A002C3212781F2A87
:100C300015D882081500A5432C1E0FD1033420407F
:100C4000A04081401B68920020339B180A00FF21BE
:100C500081401C68624011406140196030BD1A68D3
:100C6000802320401B06034380208001091889004F
:100C70008B50F3E74C050008064B10B59A68064CFC
:100C800010308300A24202D19858995010BD034AF7
:100C9000D058FBE700ED00E0000000080000001065
:100CA000F7B504000E00002801D1144C17E0002312
:100CB000C55E134B4188134F0193002D11DB2800B3
:100CC000FFF7AEFF61682800FFF780FFBB68019A5D
:100CD0000024934203D131002800FFF7CDFF20000C
:100CE000FEBD08B26168FFF771FFBB68019A9342CD
:100CF000DBD131002800FFF7BFFFD6E70100560027
:100D00000000000800ED00E0FEE7000002680A4B6A
:100D100010B51A6042685A6082689A60C268DA60E8
:100D200002691A6142695A6182699A61C269DA612B
:100D3000FFF7EAFF10BDC04690030008B0235B0533
:100D40005A782120002A01D05878C0B27047B023C9
:100D50005B059A89002A02D0988980B2704780206A
:100D60004000FBE7254B73B586000D00F4580429BD
:100D700001D0012925D100200EE0A3682B420AD121
:100D8000E36829001A685B6868460193009223684B
:100D900098471B4B1C606469002C0AD0194B984281
:100DA000EBD1012DE9D1164A174B126815489A511B
:100DB00076BD012DFCD1134B9842F4D0124B9C51BF
:100DC000F6E7022914D026006469002CFBD100202C
:100DD000002EEDD0B3682B4208D1F36829001A68C1
:100DE0005B68684601930092336898473669EFE77D
:100DF000034B1B68181EDBD01E69E8E7B40500082A
:100E0000B0050008FF0042009C0500081A4B1B6853
:100E1000190088311A6809685118096801621900B7
:100E20008C3109685218126842621A0046321278F0
:100E3000002A1FD09A68E0321268D2061AD5F22230
:100E4000DB68D2019A580260F022D2019A584260BF
:100E50000A4A9A5882600A4A9A58C260094A9A58BD
:100E60000261094A9A584261084A9A588261084ABE
:100E70009B58C3617047C0464C05000804780000C9
:100E8000087800000C78000010780000147800004A
:100E9000187800001A4B1B681900883109681A6815
:100EA0005218016A116019008C3109681A685218C9
:100EB000416A11601A0046321278002A1ED09A68E0
:100EC000E0321268D20619D5F0224168DB68D201FF
:100ED000995081680B4A9950C1680B4A9950016931
:100EE0000A4A995041690A4A99508169094A9950B8
:100EF000C169094A99500168E83299507047C04663
:100F00004C05000804780000087800000C78000008
:100F1000107800001478000018780000F7B505007C
:100F2000FFF70CFF564F01907B68002B00D06FE05D
:100F3000FFF72BFA7B680090002B00D07CE0514B30
:100F400007271C682300BA331B885F43236AFB18FA
:100F50001A68002AFCDADB68DA001ED51B0F4A4843
:100F60001E07FFF753FF22008832126823684749A3
:100F70009B181A6801980A40212862D1902000012C
:100F800002431A6022008C32126823689B181A6888
:100F90000A40104318603C4B3343802292051343B0
:100FA000226A0024BF18FB607C607B68FFF7CFFEDD
:100FB0008023344F5B00984246D1280000F068FA45
:100FC0003F6807223B00BA331E883B6A5643F3183A
:100FD0001A68002AFCDADD68EB0003D52801000955
:100FE000FFF758FF00222A4B00981D403B6AF31878
:100FF000DD605A60FFF7CDF9002C10D1204B5B6803
:10100000002B03D008210120FFF7ACFE2000FEBD1D
:1010100001210800FFF7A6FE041E00D188E7184B47
:101020005B68002B03D002210120FFF79BFE194BC8
:101030009C42EBD0184CE9E704210120FFF792FE17
:101040007DE7802040009BE73B681A00BC32196AAC
:10105000126852181168002910DBBA331B889B18DC
:101060001B68002B0ADB04230C4A11690B43136134
:10107000012D01D030BFA3E720BFA1E7054C9FE7BA
:10108000B40500084C05000874050008FF00FFFFC8
:10109000FFFFFFDF05004200FF00420000ED00E01F
:1010A000C0228020064952008B58C0059B009B0837
:1010B00003438B50802388581B0603438B50704793
:1010C0000000264002B4714649084900095649000B
:1010D0008E4402BC7047C046002243088B4274D342
:1010E00003098B425FD3030A8B4244D3030B8B4229
:1010F00028D3030C8B420DD3FF22090212BA030C32
:101100008B4202D31212090265D0030B8B4219D312
:1011100000E0090AC30B8B4201D3CB03C01A524132
:10112000830B8B4201D38B03C01A5241430B8B427A
:1011300001D34B03C01A5241030B8B4201D30B0363
:10114000C01A5241C30A8B4201D3CB02C01A52418A
:10115000830A8B4201D38B02C01A5241430A8B424D
:1011600001D34B02C01A5241030A8B4201D30B0236
:10117000C01A5241CDD2C3098B4201D3CB01C01A50
:10118000524183098B4201D38B01C01A524143095A
:101190008B4201D34B01C01A524103098B4201D348
:1011A0000B01C01A5241C3088B4201D3CB00C01AB5
:1011B000524183088B4201D38B00C01A524143082D
:1011C0008B4201D34B00C01A5241411A00D2014652
:1011D000524110467047FFE701B5002000F006F8C5
:1011E00002BDC0460029F7D076E770477047C04679
:1011F000002B11D1002A0FD1002900D1002802D0E4
:101200000021C943080007B4024802A14018029017
:1012100003BDC046D9FFFFFF03B4684601B502987D
:1012200000F034F8019B9E4602B00CBC7047C046EB
:10123000F0B5CE469946030C9C46130447461B0C5A
:101240001D000E0061460404240C80B50700100C3C
:101250004B436543414360432C0CC01820188C4617
:10126000834203D980235B029846C44449467943AC
:101270005643030C2D042D0C8919634400044019B6
:10128000C918C0BCB946B046F0BDC046F0B5574617
:101290004E464546DE46E0B504000D0092469946AE
:1012A00083B08B4230D82DD04946504600F0D8F854
:1012B00029000600200000F0D3F8331A9846203B9E
:1012C00034D49B4653465A46934042461F005346E9
:1012D00093401E00AF423BD8AF4200D179E05B465D
:1012E000A41BBD41002B00DA76E00022002300920F
:1012F000019301235A4693400193012342469340B0
:10130000009329E08242CFD900220023009201936A
:101310000C9B002B01D01C605D600098019903B00C
:10132000F0BCBB46B246A946A046F0BD42469B462D
:1013300020239B1A5246DA40414613004A468A400F
:10134000170042461F43534693401E00AF42C3D985
:1013500000220023009201934346002BD8D0FB07C4
:1013600072081A4346467B080EE0AB4201D1A24206
:101370000CD8A41A9D41012024196D410021013E81
:1013800024184D41002E06D0AB42EED9013E24195F
:101390006D41002EF8D1009801995B460019694112
:1013A000002B24DB2B005A464446D3402A00E2405F
:1013B0001C005B461500002B2ADB26009E403300F4
:1013C00026004746BE403200801A994100900191A4
:1013D0009EE7A342BCD882E74246202300219B1A05
:1013E0000022009101920122DA40019285E74246F3
:1013F00020239B1A2A0046469A402300F340444685
:1014000013432A00E2401C005B461500002BD4DA8F
:1014100042462F002023260097409B1ADE403B00C7
:101420003343CDE71C2101231B04984201D3000C58
:1014300010391B0A984201D3000A08391B09984247
:1014400001D30009043902A2105C40187047C0465D
:10145000040302020101010100000000000000007D
:1014600010B5002903D1FFF7DDFF203002E00800AE
:10147000FFF7D8FF10BDC046F8B5C046F8BC08BCA1
:101480009E467047F8B5C046F8BC08BC9E467047FB
:1014900001B40248844601BC604700BF65020008F1
:1014A0000300000001000000010000000000000037
:1014B00005036000040000000100000000000000BF
:1014C0000100000006046000080000002C05000870
:1014D000B101001000002040000024400000004046
:1014E00000000000000023400000304000003140B8
:1014F00000009F40000022400000104000009D407E
:101500002020202020101010101D1D8017007500B5
:10151000FF03060206003604102000007FC0000012
:1015200000040000000000000019324B647D000040
:10153000000000804000080B100000000000FF01C8
:101540002002001F00800004FF0810180010001483
:101550000018001C4044484C5000000008100000D7
:101560000800000004000000041000000012000049
:10157000042100000021000000160000401140027C
:10158000C41300138013A01340138813A813200062
:101590001C00000000000000F4FCFF7F01000000C0
:1015A000000000100000000880000000C0150010BE
:1015B00080000008F8020000B003000818020000D4
:1015C00000093D0000093D0000127A0000093D00BD
:1015D000A00F000004000000F5000010C90000107A
:1015E00080B230B5C400002820D0114B1868030029
:1015F000BA331A8807235343026A9A1811680029DC
:10160000FCDA3E210B4A062511600B4A0B4911609A
:10161000A3210B4AC90055500A495450006A545836
:101620001B18002058605358002BFCDA30BDC04610
:101630004C05000804012640080126401E1F00003A
:10164000000026401C05000010B54378FF2B11D187
:1016500000F00AF90400032000F026F90121C36814
:101660005B681A680A431A601A680A42FCD12000B3
:1016700000F0E2F810BDF7B507000020019100F07E
:1016800013F93F4C050023681A005033BC3216682A
:101690001B788619002B5CD000F0EEF80090032830
:1016A00018D000F0E1F80400364A374BD158002931
:1016B000FCDAD358002B37DB344D009B032B05D1CC
:1016C0000121002000F0E8F80028F9D1200000F006
:1016D000B3F80AE0062000F0E7F82368BC331B6883
:1016E000C0180368002B02DA284D2800FEBD002038
:1016F00000F09AF8264B9842F6D00023254A1900AC
:101700000120126800F0A0F8041EEDD1002000F0C6
:101710008BF81F4A204B904203D09C42E4D0013406
:10172000F4E79C42BDD1DFE7012128001B4A00F00D
:1017300093F80028C0D10198FFF752FF002F06D080
:101740003368002BFCDB00F09FF80500B5E7144D73
:10175000B3E700F089F801210400104A280000F0E6
:101760007BF8002808D1002F08D03368002BFCDB61
:1017700000F08AF80500A9E7044DA7E7084DA5E7A2
:101780004C050008000026401C0500000500520022
:101790000101880060050008F049020050050008BA
:1017A00001005000184BF7B51B6818495A6804230C
:1017B0000C6923430B61012824D030BF1300FC3394
:1017C0001B69002B1DD1A324114B12481249E400C0
:1017D00007681E590D680195104D056006251D51BD
:1017E0003E240C600E4C3E351D511D59002DFCDA77
:1017F0000C4CFC321461A322D20007609E50019B66
:101800000B60F7BD20BFD9E74C05000800ED00E0F4
:101810000000264008012640040126401E1F00004B
:101820001C050000AAAAAAAA01B40248844601BC69
:10183000604700BF3908001001B40248844601BC6B
:10184000604700BF9303001001B40248844601BC06
:10185000604700BFD105001001B40248844601BCB6
:10186000604700BFBD04001001B40248844601BCBB
:10187000604700BF8B03001001B40248844601BCDE
:10188000604700BFE102001001B40248844601BC79
:10189000604700BF5904001001B40248844601BCEF
:1018A000604700BFB907001001B40248844601BC7C
:1018B000604700BFA503001000000000000000000A
:1018C0000000000000000000000000000000000018
:1020000000F80F08712300100D000000E5230010F8
:10201000E5230010E5230010E52300100000000078
:10202000000000000000000000000000F12D001082
:10203000E123001000000000912E0010992D0010E7
:10204000E1230010E1230010E1230010E123001040
:10205000E1230010E1230010E1230010E123001030
:10206000E1230010E1230010E1230010E123001020
:10207000E1230010E1230010E1230010E123001010
:1022E0000348044B834202D0034B03B118477047A5
:1022F0004029000840290008000000000548064B5E
:102300001B1AD90F01EBA301491002D0034B03B1F3
:1023100018477047402900084029000800000000C5
:1023200010B5064C237843B9FFF7DAFF044B13B11D
:102330000448AFF300800123237010BD2C2A00084D
:10234000000000007812011008B5054B1BB10549CB
:102350000548AFF30080BDE80840FFF7CFBF00BFDE
:1023600000000000302A0008781201107047704702
:10237000FFF7FCFF72B6144C144DAC4209DA216829
:102380006268A368043BA2BFC858D050FAE70C3477
:10239000F3E70F490F4A00209142BCBF41F8040BFC
:1023A000FAE70D480D490860BFF34F8F00F084F83D
:1023B00000F068F800F044FC0BF072FD00F024FB24
:1023C0000BF092FDFEE70000841201109C12011038
:1023D0002C2A0008F43B00080020000808ED00E06B
:1023E000FEE7FEE700B504207146084202D0EFF395
:1023F000098002E0EFF30880043009F089FAFEE773
:1024000008B5012006F0F4F908BD704710B50020AA
:1024100009F06CF900B910BD0446124B186008F0C1
:102420006FFB0130B4FBF0F00F4B186008F080FB3D
:102430000130B4FBF0F40D4B1C60013C0C4BA3FBD2
:1024400004239B0C01330B4A13700B4BA3FB043486
:10245000A4090134094B1C60002009F047F9084B1E
:102460001860D8E7E8220008EC220008E022000803
:1024700083DE1B43F4220008D34D6210F0220008D3
:10248000E422000808B5094805F058FDFFF7BDFF34
:10249000FFF7BCFF00221146032006F005FA0448AE
:1024A00006F048F8034806F0A7F808BD340E0110FE
:1024B000482A0008F0000110EFF3108172B6074AB5
:1024C000D2F8883043F47003C2F88830BFF34F8FDE
:1024D000BFF36F8F81F31088704700BF00ED00E0FD
:1024E00008B500F0C9F800F00DF800F0BBF800F0F6
:1024F00045F800F04BF808BD08B500F02DF800F0E5
:102500005FF808BD08B50F21012008F02DFA002260
:102510000F21012008F09AF80F21012008F0E2F9BC
:102520000021084608F020FAFF220021084608F0A2
:102530008DF80021084608F0D5F90721002008F0A1
:1025400013FA00220721104608F080F80721002026
:1025500008F0C8F908BD000008B5054803F0E6FA20
:10256000044803F0E3FA044803F0E0FA08BD00BFB2
:102570002C010110240101102801011008B50022CE
:1025800011462F2008F072F908BD000010B5084C64
:10259000084A0421204605F0E7FE074A06212046A6
:1025A00005F0E2FE054A0721204605F0DDFE10BDDC
:1025B00000033140CC010110940101105C010110B5
:1025C00008B5184803F0B2FA174803F0AFFA1748F5
:1025D00003F0ACFA164803F0A9FA164803F0A6FA7D
:1025E000154803F0A3FA154803F0A0FA144803F0C5
:1025F0009DFA144803F09AFA134803F097FA134827
:1026000003F094FA124803F091FA124803F08EFA9C
:10261000114803F08BFA114803F088FA104803F0D0
:1026200085FA08BD040201100802011058010110CA
:1026300000020110C80101109001011030010110C9
:1026400034010110380101103C010110400101105A
:1026500044010110480101104C010110500101100A
:1026600054010110024B33229A601A61704700BF77
:1026700000203040FEE7000030B583B00722002183
:10268000322008F0F3F89621002009F093F909F0C0
:1026900023F9C0B9784BD3F8004F04F03F0409F098
:1026A0000BF930B1012009F0FDF8744B9B6C002B45
:1026B00026DB714BC3F8004F08F020FB08F014FB39
:1026C000012008F02FFB012009F0C6FE09F06CFE86
:1026D00009F046FF09F030FF08F00CFC0021084625
:1026E00008F0AAFA002008F015FA012008F0FAF91B
:1026F000002008F0B5F9624B1B6893F83F4006E0F4
:102700000620FFF7B7FF204608F030FD013C002C03
:10271000F9D10021012008F039FB002008F07AFAF5
:10272000002800F08E800021084608F02FFB0021D1
:10273000084608F04FFA534D0024009423462246E1
:102740002146284605F030FD00942346224601210B
:10275000284605F029FD4C4808F0A8FA00287CD14D
:10276000012008F0A7F9002008F0D4F9002008F0B3
:10277000B9F9002008F074F90021012008F006FBE7
:102780000021084608F002FB0021022008F0FEFAB2
:102790000021032008F0FAFA0021042008F0F6FADC
:1027A0000021052008F0F2FA384808F0BDFB0028A7
:1027B00056D1374808F068FC002854D1002108465B
:1027C00008F008FA0021084608F036FA31490120DD
:1027D00008F0F2FC002849D142F21071012008F003
:1027E00079FD002845D1002008F054F908F07CFA62
:1027F000012008F097FA6421002009F0DBF8FFF7C8
:1028000005FE254803F092F900B101BE234803F00C
:102810008DF900B101BE224803F088F900B101BE74
:10282000204803F083F900B101BE1F4803F07EF990
:1028300000B101BE1D4803F079F900B101BE03B03B
:1028400030BD08F0D1FA40F2111398427FF46BAF1B
:102850000121002008F0BEF965E70520FFF70AFF17
:102860000420FFF707FF0420FFF704FF0320FFF712
:1028700001FF0320FFF7FEFE00F027400000274085
:10288000543800080000314040420F000C02011093
:10289000400D030038020110200201102402011033
:1028A000280201102C020110300201103402011024
:1028B00008B5044809F000FA08B1002008BD024834
:1028C000FCE700BFF82200080000020610B503F084
:1028D0002BF9044638B154B1FFF702FEFFF70CFEA6
:1028E0005CB1204610BD04F0DDFB0446F3E740F682
:1028F000E441002004F096FCEEE7FFF7D9FF044620
:10290000EFE7000010B586B0044600238DF81730BD
:102910008DF816304FF47A730293012301930DF171
:10292000170200926B22692103F05CFCB0B91048D9
:102930000BF018F94FF47A730293012301930DF110
:10294000160200921C226921204603F04BFC01462E
:1029500048B908480BF006F906B010BD0146064814
:102960000BF09AF8E6E705480BF096F8F4E700BF9D
:1029700040020110A002011058020110C80201100B
:1029800070B586B00E4615461C464FF47A73029316
:102990000623019304AB009301233B22692103F03A
:1029A0006DFCC8B90F480BF0DDF89DF810209DF8BC
:1029B000113043EA022333809DF812209DF8133032
:1029C00043EA02232B809DF814209DF8153043EA3A
:1029D0000223238006B070BD014603480BF05CF86B
:1029E000E3E700BF0C0301102403011007EE900A77
:1029F000F8EEE77A9FED037A67EE877A17EE900A92
:102A0000704700BF00008038F0B5B7B0FFF75EFF39
:102A100000B101BE4FF4E1330093FF231A46282191
:102A2000292009F0C9FE00B101BE00238DF81C3039
:102A3000ADF81E30274A08923022312109A803F050
:102A40009FFA00283BD107A909A803F00FFB002833
:102A50003AD121480BF086F809A8FFF753FF62B678
:102A60000DF1160306AA0DF11A0109A8FFF788FF58
:102A7000BDF91A00FFF7BAFF0446BDF91800FFF7C9
:102A8000B5FF0646BDF91600FFF7B0FF0746204622
:102A90000AF01EF804460D4638460AF019F8CDE94A
:102AA000020130460AF014F8CDE9000122462B4617
:102AB0000A480AF0F1FF322004F0BEFBD0E70848D4
:102AC0000BF050F801BEBEE706480BF04BF801BE14
:102AD000BFE700BFA086010088030110A803011012
:102AE0004C0301106C0301100230800803D0013048
:102AF0000238FCD100BF00BF7047EFF3108072B600
:102B0000704780F310887047B0F1FF3F22D008B3C0
:102B100038B5C50E43011B1A65F10005AD0045EA45
:102B200093759B001B1845F10005ED0045EA5375B0
:102B3000DC004FF47A720023204629460AF070F830
:102B40006FF47A73A34240F2E733AB4101D26FF0E6
:102B5000010038BD704708B504F062FB002008BDD5
:102B6000034B0360034B0B6080231360704700BF6F
:102B7000E8310008E82B0008034B0360034B0B60AF
:102B80004FF4807313607047A4320008E82D0008EA
:102B900070B582B0054600230193244B1B686BB1CE
:102BA000224B1B6843B1FFF7A8FF044601F0C8FDA4
:102BB00070B92046FFF7A5FF02B070BD1C4803F0B6
:102BC000F9FD18B9194B1A4A1A60E9E701BEE7E79F
:102BD0004FF47A7605FB06F6164DA5FB0635AD09D2
:102BE000FFF7B9FF85420CD813480028E1D1019BBB
:102BF000AB4200D901BE0198FFF786FF01F02AF928
:102C0000D7E7012301AA291A0848006804F092FABC
:102C10000A4B9842E9D1B6F57A7FCAD3002301AABC
:102C200029460248006804F085FADEE7D02B000848
:102C3000D42B0008D34D621000000E06051A0204C2
:102C40007047000008B503460A4A10680A4A121A7B
:102C50009A4207DBC118094A914203DB0344054A43
:102C6000136008BD0BF016F90C2303604FF0FF3022
:102C7000F7E700BF1423000800E80F08F83B00083E
:102C800008B501F0C7FE08BD08B501F0E5F908BDBB
:102C900000F1080343604FF0FF328260C3600361BC
:102CA00000230360704700230361704743684B6053
:102CB0009A688A6051609960086103680133036013
:102CC00070470369416882688A60416851605A6848
:102CD000824206D0002202611A68013A1A6018681E
:102CE000704782685A60F5E730B40D68B5F1FF3F70
:102CF00011D000F108031C465B681A68AA42FAD991
:102D000063684B6099608C6061600861036801339F
:102D1000036030BC70470469F2E7000082B0002312
:102D200001930D4B1B68B3F1FF3F08D04FF03F03F9
:102D300083F31188BFF36F8FBFF34F8F01BE4FF046
:102D40003F0383F31188BFF36F8FBFF34F8F019B56
:102D5000002BFCD002B07047182300080848006818
:102D6000006880F308884FF0000080F3148862B692
:102D700061B6BFF34F8FBFF36F8F00DF00BF00005E
:102D800008ED00E0DFF80C00016841F4700101601B
:102D90007047000088ED00E008B54FF03F0383F373
:102DA0001188BFF36F8FBFF34F8F01F099F828B1EF
:102DB0004FF0E0234FF08052C3F8042D002383F33B
:102DC000118808BD4FF0807340F8043C21F00101E8
:102DD00040F8081C054B40F80C3C40F8202C6FF0E4
:102DE000020340F8243C4438704700BF1D2D0010FA
:102DF000074B19680868B0E8F04F80F30988BFF303
:102E00006F8F4FF0000080F311887047AFF30080A0
:102E1000B83300084FF03F0383F31188BFF36F8F7F
:102E2000BFF34F8F0B4A136801331360012B00D09F
:102E300070474FF0E023D3F8043D13F0FF0FF7D0B5
:102E40004FF03F0383F31188BFF36F8FBFF34F8FB2
:102E500001BEEDE718230008094B1B6843B94FF08A
:102E60003F0383F31188BFF36F8FBFF34F8F01BE12
:102E7000034A1368013B13600BB983F31188704751
:102E800018230008000000000000000000000000FF
:102E9000EFF30980BFF36F8F154B1A681EF0100F08
:102EA00008BF20ED108A20E9F04F10602DE90900DD
:102EB0004FF03F0080F31188BFF34F8FBFF36F8F48
:102EC00001F0CEF94FF0000080F3118809BC1968B9
:102ED0000868B0E8F04F1EF0100F08BFB0EC108A81
:102EE00080F30988BFF36F8F704700BFAFF3008096
:102EF000B83300084FF0E022002313619361074BC1
:102F00001B680749A1FB03139B09013B536107237E
:102F10001361044B9B68044ADA637047E02200089F
:102F2000D34D621000ED00E0992D001030B583B054
:102F30004FF0E023D3F8002D3E4B9A421AD04FF0C9
:102F4000E023D3F8002D3C4B9A421DD03B4B1A781E
:102F5000D2B20192FF221A701B78DBB28DF80330D7
:102F60009DF8033003F03F03354A1370354B0722B9
:102F70001A601DE04FF03F0383F31188BFF36F8F9A
:102F8000BFF34F8F01BEDAE74FF03F0383F31188A1
:102F9000BFF36F8FBFF34F8F01BED7E7294A136886
:102FA000013B13609DF803305B00DBB28DF803300A
:102FB0009DF8033013F0800FF0D1224B1B68042BD7
:102FC00008D04FF03F0383F31188BFF36F8FBFF337
:102FD0004F8F01BE1B4A13681B02136003F4E063AA
:102FE0001360019BDBB2154A13704FF0E024D4F854
:102FF000203D43F47F03C4F8203DD4F8203D43F046
:103000007F43C4F8203DFFF775FF00250E4B1D6080
:10301000FFF7B8FED4F8343F43F04043C4F8343FE0
:10302000FFF79CFE01F01CF9FFF778FE284603B07D
:1030300030BD00BF71C20F4170C20F4100E400E01B
:10304000603300086433000818230008EFF3058399
:103050000F2B0FD9114A9B5CDBB2114A12789A42AE
:1030600008D94FF03F0383F31188BFF36F8FBFF38D
:103070004F8F01BE4FF0E023D3F80C3D03F4E06323
:10308000084A1268934208D94FF03F0383F311882E
:10309000BFF36F8FBFF34F8F01BE7047F0E300E0C7
:1030A00060330008643300084FF03F0383F3118856
:1030B000BFF36F8FBFF34F8F01BEFEE74FF03F03AB
:1030C00083F31188BFF36F8FBFF34F8F01BEFEE70D
:1030D00010B5044601F09EFC204609F01FFF04468F
:1030E00000F0BAFF0CB1204610BDFFF7DDFFFAE794
:1030F00048B110B5044601F08DFC204609F016FFDA
:1031000000F0AAFF10BD70470346406A18B11B6B60
:103110001868C0F10700704710B50446FFF77AFE43
:10312000A26BE36B9A4204D00024FFF795FE204681
:1031300010BD0124F9E710B50446FFF76BFEA36B41
:1031400023B90124FFF788FE204610BD0024F9E7CB
:1031500070B504461546866B026C5AB903681BB1FC
:1031600000200136A66370BD806801F0E5FC0023F5
:10317000A360F6E76DB940680AF022FF226C63682D
:1031800013446360A268934219D32368636028469E
:10319000E7E7C0680AF014FF226C5142E3689B1A0B
:1031A000E3602268934202D2A3680B44E360022DDD
:1031B00001D00020D5E726B1013E0020D1E7284606
:1031C000CFE70020CDE70346026C6AB110B5084690
:1031D000D9681144D9609C68A14201D31968D960AB
:1031E000D9680AF0EDFE10BD704738B50546FFF707
:1031F00011FE95F8454064B201E0013C64B2002C38
:103200000ADD6B6A43B105F1240001F061F9002881
:10321000F3D001F08FFAF0E7FF2385F84530FFF790
:103220001BFEFFF7F7FD95F8444064B201E0013C56
:1032300064B2002C0ADD2B6943B105F1100001F0E6
:1032400047F90028F3D001F075FAF0E7FF2385F87D
:103250004430FFF701FE38BDF0B585B00F4601924E
:103260001D46044690B1DFB1022D26D001F092FA3E
:1032700050B9019B43B14FF03F0383F31188BFF373
:103280006F8FBFF34F8F01BE002661E04FF03F0309
:1032900083F31188BFF36F8FBFF34F8F01BEE2E757
:1032A000236C002BE0D04FF03F0383F31188BFF372
:1032B0006F8FBFF34F8F01BED6E7E36B012BD5D0E5
:1032C0004FF03F0383F31188BFF36F8FBFF34F8F2E
:1032D00001BECBE72A4639462046FFF739FF636A2D
:1032E0007BB948B14FF0E0234FF08052C3F8042D72
:1032F000BFF34F8FBFF36F8FFFF7AEFD012005B017
:10330000F0BD04F1240001F0E3F80028F4D04FF000
:10331000E0234FF08052C3F8042DBFF34F8FBFF36B
:103320006F8FE9E7FFF798FD0020E8E702A801F0BA
:103330009FFB012619E0002384F8443021E000239C
:1033400084F8453023E02046FFF74FFF00F084FE6D
:10335000FFF760FDA26BE36B9A42BBD3022DB9D09D
:10336000019B002BDED0002EE0D0FFF775FD01F0B1
:1033700051FBFFF74FFD94F8440040B2B0F1FF3F1E
:10338000D9D094F8450040B2B0F1FF3FD7D0FFF755
:1033900063FD01A902A801F087F9D8B92046FFF71B
:1033A000BBFE0028CFD0019904F1100001F046FBCC
:1033B0002046FFF71AFF00F04FFE0028C8D14FF05B
:1033C000E0234FF08052C3F8042DBFF34F8FBFF3BB
:1033D0006F8FBDE72046FFF708FF00F03DFE00209D
:1033E0008DE738B5044630B1A56801F0CDF98542C6
:1033F0000BD0002038BD4FF03F0383F31188BFF39B
:103400006F8FBFF34F8F01BEEEE7E368013BE360D0
:103410000BB10120EEE71A4619462046FFF71CFFC4
:103420000120E7E72DE9F8430E4691461D46044684
:10343000C8B116B3022D2DD0FFF708FEEFF31187A8
:103440004FF03F0383F31188BFF36F8FBFF34F8FAC
:10345000A26BE36B9A422AD3022D28D0002087F377
:103460001188BDE8F8834FF03F0383F31188BFF361
:103470006F8FBFF34F8F01BEDBE7236C002BD9D0DA
:103480004FF03F0383F31188BFF36F8FBFF34F8F6C
:1034900001BECFE7E36B012BCED04FF03F0383F3A8
:1034A0001188BFF36F8FBFF34F8F01BEC4E794F84D
:1034B00045804FFA88F8A36B2A4631462046FFF72D
:1034C00047FEB8F1FF3F0FD1636A0BB90120C6E791
:1034D00004F1240000F0FCFFF8B1B9F1000F1ED098
:1034E0000120C9F80000BAE701F0A2FA804518D21D
:1034F000B8F17F0F07D008F101084FFA88F884F877
:1035000045800120ABE74FF03F0383F31188BFF301
:103510006F8FBFF34F8F01BEEDE701209FE70120C2
:103520009DE701209BE7F8B50E46044640B3236CA7
:1035300043B14FF03F0383F31188BFF36F8FBFF3A5
:103540004F8F01BE23682BB3FFF780FDEFF311858A
:103550004FF03F0383F31188BFF36F8FBFF34F8F9B
:10356000A36BE26B9A4241D994F845707FB2013364
:10357000A363B7F1FF3F23D1636AC3B9012036E0EB
:103580004FF03F0383F31188BFF36F8FBFF34F8F6B
:1035900001BECCE7A368002BD6D04FF03F0383F3E6
:1035A0001188BFF36F8FBFF34F8F01BECCE704F1DB
:1035B000240000F08DFFE8B1F6B10120306016E084
:1035C00001F036FA874219D27F2F05D001377FB23A
:1035D00084F8457001200AE04FF03F0383F311881F
:1035E000BFF36F8FBFF34F8F01BEEFE7002085F36E
:1035F0001188F8BD0120FAE70120F8E70120F6E77D
:10360000F0B585B00F460192044680B1CFB101F00C
:10361000C1F850B9019B43B14FF03F0383F31188C8
:10362000BFF36F8FBFF34F8F01BE002655E04FF001
:103630003F0383F31188BFF36F8FBFF34F8F01BE3A
:10364000E4E7236C002BE2D04FF03F0383F31188B3
:10365000BFF36F8FBFF34F8F01BED8E739462046C7
:10366000FFF7B1FD013DA563236923B9FFF7F4FB23
:10367000012005B0F0BD04F1100000F029FF002882
:10368000F4D04FF0E0234FF08052C3F8042DBFF385
:103690004F8FBFF36F8FE9E7FFF7DEFB0020E8E70E
:1036A00002A801F0E5F9012621E0002384F8443066
:1036B00029E0002384F845302BE02046FFF795FDF4
:1036C00000F0CAFC09E02046FFF78FFD00F0C4FCC3
:1036D0002046FFF730FD00283FD1FFF79BFBA56B8D
:1036E000002DBBD1019B002BD6D0002ED8D0FFF7E8
:1036F000B3FB01F08FF9FFF78DFB94F844305BB218
:10370000B3F1FF3FD1D094F845305BB2B3F1FF3F46
:10371000CFD0FFF7A1FB01A902A800F0C5FF002848
:10372000D1D12046FFF707FD0028C6D0019904F14A
:10373000240001F083F92046FFF757FD00F08CFCD0
:103740000028CAD14FF0E0234FF08052C3F8042D77
:10375000BFF34F8FBFF36F8FBFE7002089E770B5CE
:1037600084B001910446D8B1236C43B14FF03F03BC
:1037700083F31188BFF36F8FBFF34F8F01BE01F04A
:1037800009F850B9019B43B14FF03F0383F311880F
:10379000BFF36F8FBFF34F8F01BE002635465DE04C
:1037A0004FF03F0383F31188BFF36F8FBFF34F8F49
:1037B00001BED9E7013BA363236833B1236943B951
:1037C000FFF74AFB012004B070BD01F06BFAA06066
:1037D000F4E704F1100000F07BFE0028F0D04FF079
:1037E000E0234FF08052C3F8042DBFF34F8FBFF397
:1037F0006F8FE5E746B14FF03F0383F31188BFF3C6
:103800006F8FBFF34F8F01BEFFF726FB0020DAE773
:1038100002A801F02DF901252AE0002384F84430A4
:1038200032E0002384F8453034E0FFF7F3FAA06873
:1038300001F02AF90646FFF70FFB3BE02046FFF7B1
:10384000D4FC00F009FC09E02046FFF7CEFC00F0B4
:1038500003FC2046FFF76FFC002842D1FFF7DAFA9D
:10386000A36B002BA6D1019B002BC3D0002DCFD082
:10387000FFF7F2FA01F0CEF8FFF7CCFA94F84430F3
:103880005BB2B3F1FF3FC8D094F845305BB2B3F1FF
:10389000FF3FC6D0FFF7E0FA01A902A800F004FF3D
:1038A0000028D1D12046FFF746FC0028C6D0236867
:1038B000002BBAD0019904F1240001F0BFF8204692
:1038C000FFF793FC00F0C8FB0028C7D14FF0E023BE
:1038D0004FF08052C3F8042DBFF34F8FBFF36F8FAB
:1038E000BCE70EB900206EE7FFF794FA2046FFF719
:1038F0000BFC0146A06801F075F9FFF7ADFAF1E79E
:1039000070B50D46044668B1A66800F03DFF8642DA
:1039100012D029462046FFF722FF88B1E368013321
:10392000E3600DE04FF03F0383F31188BFF36F8F27
:10393000BFF34F8F01BEE7E7E3680133E360012087
:1039400070BD10B5044630B1FFF764FAA46BFFF701
:1039500083FA204610BD4FF03F0383F31188BFF375
:103960006F8FBFF34F8F01BEEEE770B504460D4673
:103970001646FFF74FFA94F844305BB2B3F1FF3FBD
:103980000DD094F845305BB2B3F1FF3F0BD0FFF799
:1039900063FAA36B5BB12046FFF727FC70BD0023E1
:1039A00084F84430EDE7002384F84530EFE73246F1
:1039B000294604F1240000F061FDECE738B50D461E
:1039C000044698B13CB1E36B2BB1226C0021A3FB00
:1039D0000232AAB9B1B14FF03F0383F31188BFF3AC
:1039E0006F8FBFF34F8F01BE002038BD4FF03F03F4
:1039F00083F31188BFF36F8FBFF34F8F01BEE1E7F1
:103A00000121E7E7FFF706FA2368E26B216C01FB6F
:103A10000230A0600020A0636360013A02FB013322
:103A2000E360FF2384F8443084F84530B5B9236956
:103A30001BB9FFF711FA0120D7E704F1100000F0DD
:103A400047FD0028F5D04FF0E0234FF08052C3F837
:103A5000042DBFF34F8FBFF36F8FEAE704F110001F
:103A6000FFF716F904F12400FFF712F9E1E738B582
:103A70001D46049C0B4649B92460E0632364012180
:103A80002046FFF79BFF84F84C5038BD2260F4E7D6
:103A900010B584B01C46EBB140B33CB302B129B3BE
:103AA00012B350230393039B502B08D04FF03F03D6
:103AB00083F31188BFF36F8FBFF34F8F01BE039B5A
:103AC000012384F8463000949DF81830FFF7CFFFAB
:103AD000204615E04FF03F0383F31188BFF36F8F4B
:103AE000BFF34F8F01BED7E70029DAD04FF03F0375
:103AF00083F31188BFF36F8FBFF34F8F01BE002098
:103B000004B010BD10B4044618B191B100200346B2
:103B100013E04FF03F0383F31188BFF36F8FBFF3C0
:103B20004F8F01BEF1E70E4800EBC30008B1016002
:103B300044605DF8044B70470133092BF6D8084AFE
:103B400002EBC3025268A242EDD00028F4D1044A2D
:103B500052F83320002AEFD1014800EBC300EBE715
:103B6000683300080A4B1B6803B10123094A126835
:103B7000D06A50B9084A1268012A07D833B9074BEE
:103B80001868074B1B68C01A70470020704700BFB9
:103B900060340008B8330008C433000890340008CB
:103BA000DC340008074B1B681B6823B9064B4FF039
:103BB000FF321A607047034B1B68DB681A68024BC0
:103BC0001A607047BC3300089034000810B50446F2
:103BD000FFF720F9294A136801331360284B1B684B
:103BE0005BB1284B1B686BB9254B1B68DA6AE36A2B
:103BF0009A4207D8224B1C6004E0214B1C601368DA
:103C0000012B37D0204A1368013313606364E36AE1
:103C10001E4A1268934201D91C4A13601C4A03EBE6
:103C2000830302EB83035B68A3609868E060211D57
:103C300041609960E36A03EB8301880002EB810134
:103C40006161115801311150FFF706F90D4B1B68E6
:103C50007BB10B4B1B68DA6AE36A9A4209D24FF0D8
:103C6000E0234FF08052C3F8042DBFF34F8FBFF312
:103C70006F8F10BD00F000FEC4E700BF5034000895
:103C8000B8330008B03400085C3400086034000821
:103C9000C433000870B504460D461E4B1E681E4B0B
:103CA00018680430FFF70DF8B4F1FF3F0DD034442D
:103CB000194B1B685C60A6421DD9184B1868164B3F
:103CC00019680431FFF710F870BD002DEFD0144AC9
:103CD0005168114B1868816018688C68C460186856
:103CE000043060601868043088601B685A6113688B
:103CF00001331360E8E70B4B1868074B1968043170
:103D0000FEF7F2FF084B1B68A342DDD9064B1C608F
:103D1000DAE700BFDC340008B8330008C03300081D
:103D2000B4340008BC330008903400082DE9F04397
:103D300085B00746884614461E469000FFF7C8F92E
:103D400020B38146BC20FFF7C3F90546D0B1BC22A1
:103D5000002109F0E7FFC5F83090E5B1002385F8B0
:103D6000B930039302950D9B01930C9B009333464E
:103D700022464146384600F01DFD2846FFF726FF43
:103D8000012005E04846FFF7B3F9E6E74FF0FF30C2
:103D900005B0BDE8F0834FF0FF30F9E710B588B00B
:103DA00000240594069407AA06A905A8FEF7D8FEE4
:103DB000059B0293069B019300942346079A1C4996
:103DC0001C4800F0D5FD1C4B186050B101F00EF9F5
:103DD000012808D0B0F1FF3F1FD0184B1B6808B076
:103DE00010BD0020F4E74FF03F0383F31188BFF3C9
:103DF0006F8FBFF34F8F124B1B686833114A1360EC
:103E0000114B4FF0FF321A60104B01221A60104B19
:103E100000221A60FFF78AF8DFE74FF03F0383F3D1
:103E20001188BFF36F8FBFF34F8F01BED5E700BF7F
:103E3000DC030110F14100108C3400081C23000841
:103E4000B83300082024000890340008B03400087B
:103E5000DC34000810B504461D4B1B6803441D4AA2
:103E60001268934208D94FF03F0383F31188BFF3E0
:103E70006F8FBFF34F8F01BE154B1B682344154A4C
:103E80001268934204D0124A13682344136010BD91
:103E9000114B1B6843B94FF03F0383F31188BFF305
:103EA0006F8FBFF34F8F01BE44B94FF03F0383F3D1
:103EB0001188BFF36F8FBFF34F8F01BEFEF7AAFFCC
:103EC000064A136801331360FEF7C6FF013CDAE7C8
:103ED000DC34000890340008583400089834000896
:103EE000524B1B68002B40F0998070B5504B1C68FA
:103EF00001341C60C4B94F4B1B681B6843B14FF0C1
:103F00003F0383F31188BFF36F8FBFF34F8F01BE61
:103F1000484A1168484B186810601960474A13688E
:103F200001331360FFF73EFE454B1B68A34210D9D7
:103F30000020444B1B68DB6A03EB83039A00424B6F
:103F40009B58012B00D90120404B1B68002B6BD1E3
:103F500070BD002037E03A4B4FF0FF321A60E8E7BF
:103F6000374B1A60E5E7D968516042E00021996259
:103F7000116801391160DA6A354909688A4201D944
:103F800033490A60304902EB82024FEA820C8C44CA
:103F9000DCF804209A609668DE6075609560DA6AE5
:103FA00002EB820C4FEA8C054E195E614D590135CA
:103FB0004FEA8C0C41F80C50DA6A224B1B68DB6A22
:103FC0009A4200D301201B4B1B681B68002BC2D0F8
:103FD000184B1B68DB68DB685A689442C0D35A6987
:103FE0009D68D968A9609D684D6051681D1DA942F2
:103FF000B9D0002159611168013911609A6A002A0B
:10400000B9D0DE69196AB160DE694E60566803F1A5
:1040100018018E42AAD1196A5160A7E70D4A1368A8
:104020000133136000207047012091E758340008E5
:10403000DC340008BC330008C033000894340008A6
:1040400090340008B8330008C4330008E034000896
:10405000603400089834000810B54A4B1B6843B917
:104060004FF03F0383F31188BFF36F8FBFF34F8F80
:1040700001BEFEF7CFFE434B1A68013A1A601B6877
:10408000002B7AD1404B1B683BB9002476E0196ABB
:10409000516015E0D968516021E000233B4A126865
:1040A000002A47D0394BDB68DB689A6AD869196AFD
:1040B0008160D8694860506803F118018842E6D0F1
:1040C000002199621168013911605A699868D968AC
:1040D0008160986848605168181D8142DAD00021DB
:1040E0005961116801391160DA6A294909688A42FF
:1040F00001D927490A60274902EB820201EB8202BB
:1041000052689A609468DC6060609060DA6A02EBE2
:104110008200840001EB8000586108590130085189
:10412000D96A1D4A1268D26A9142B7D31B4A01214B
:104130001160B3E70BB1FFF735FD194B1C6884B96B
:10414000164B1C68D4B14FF0E0234FF08052C3F8F7
:10415000042DBFF34F8FBFF36F8F01240EE0013C9E
:1041600007D0FFF7BDFE0028F9D00C4B01221A60E2
:10417000F5E70B4B00221A60E2E70024FEF76CFE25
:10418000204610BD58340008503400089C34000804
:1041900060340008C4330008B8330008E034000875
:1041A0009834000810B5A8B10446104B1B6843B101
:1041B0004FF03F0383F31188BFF36F8FBFF34F8F2F
:1041C00001BE00F027FC00212046FFF763FDFFF74A
:1041D00043FF48B94FF0E0234FF08052C3F8042D5D
:1041E000BFF34F8FBFF36F8F10BD00BF583400086F
:1041F00008B50DE04FF0E0234FF08052C3F8042DD6
:10420000BFF34F8FBFF36F8FFFF7ACFC012806D8C9
:1042100000F088FB0F4B1B68012BEBD8F4E700F094
:10422000F9FB0D4B1A680D4B1B689A4208D24FF0F0
:104230003F0383F31188BFF36F8FBFF34F8F01BE2E
:10424000FFF790FC012801D9FEF7A2FCFFF704FF5D
:10425000DEE700BFC433000890340008DC340008F7
:1042600008B5304B1B681BB12F4B01221A6008BDEB
:104270002D4B00221A602D4B1B681B6B1A68B2F184
:10428000A53F03D15A68B2F1A53F08D0274B186863
:1042900019683431FEF712FF254B1B6809E09A6854
:1042A000B2F1A53FF2D1DB68B3F1A53FEED1F3E760
:1042B000013B03EB83018A001E498A585AB9002B3F
:1042C000F6D14FF03F0282F31188BFF36F8FBFF337
:1042D0004F8F01BEECE703EB830082000A44506875
:1042E0004068506003EB830C4FEA8C0208321144A3
:1042F00088420FD003EB830291000E4A0A445268B1
:10430000D1680A4A11600A490B60136868330A4A87
:104310001360ACE7406862469100064A0A44506068
:10432000E8E700BF58340008E0340008B83300085C
:1043300060340008C43300082024000838B504465F
:10434000FEF768FDD4B1251D2846FEF7BAFCA36A26
:104350001BB104F11800FEF7B4FC29462648FEF70D
:10436000A5FC0023002B0CDDFEF776FD234B1B681C
:10437000A3B9234B1B68A34217D038BD204B1C6840
:10438000E1E7E21892F8B820D2B2012A01D0013355
:10439000E8E7E218002182F8B810F8E7FEF73AFDE6
:1043A000FFF700FCFEF758FDE3E7144B1B68B3B1C1
:1043B000144B1B6843B14FF03F0383F31188BFF3E5
:1043C0006F8FBFF34F8F01BE4FF0E0234FF080524D
:1043D000C3F8042DBFF34F8FBFF36F8FCDE7064BAC
:1043E0001A68094B1B689A4203D1054B00221A60D8
:1043F000C3E7FFF735FFC0E7B4340008B034000866
:10440000B8330008583400085034000838B5044662
:1044100030B3184B1B6843B94FF03F0383F3118847
:10442000BFF36F8FBFF34F8F01BE134B186841F07E
:104430000041816161681868C16118688D68056212
:104440001868183068601868183088601B689C62AB
:1044500023680133236001211046FFF71BFC38BDA0
:104460004FF03F0383F31188BFF36F8FBFF34F8F7C
:1044700001BECEE758340008B833000870B50346D3
:10448000084611461A46BBB15468104B1D68EC61D2
:104490001D68A6682E621D68183575601D68183580
:1044A000A5601B689A6213680133136009B14FF06D
:1044B000FF30FFF7EFFB70BD4FF03F0383F3118830
:1044C000BFF36F8FBFF34F8F01BEDDE7B833000836
:1044D00010B5C368DC68002C4AD0A36AE169226A7F
:1044E0008A60E16951605A6804F118018A4249D032
:1044F0000022A2621A68013A1A602C4B1B68002B3A
:1045000046D16369A168E2688A60A16851605A680F
:10451000211D8A4239D0002262611A68013A1A606C
:10452000E36A234A1268934201D9214A1360214A5F
:1045300003EB830302EB83035B68A3609868E0608E
:1045400041609960E36A03EB8301880002EB81011B
:104550006161115801311150FFF724FBE26A164BDB
:104560001B68DB6A9A421FD90120144B186010BDEA
:104570004FF03F0383F31188BFF36F8FBFF34F8F6B
:1045800001BEAAE7226A5A60B2E7E2685A60C2E74F
:104590000B4B5A68E2619068206241609160A362AF
:1045A0001A6801321A60D9E70020E0E758340008A1
:1045B00060340008C4330008B8330008E034000851
:1045C0009C34000810B5334B1B6843B94FF03F03D0
:1045D00083F31188BFF36F8FBFF34F8F01BE41F09C
:1045E00000410160C468002C44D0036941688268BE
:1045F0008A60416851605A68824245D00022026157
:104600001A68013A1A60FFF7CDFA6369A168E26897
:104610008A60A16851605A68211D8A4237D0002201
:1046200062611A68013A1A60E36A1B4A126893428F
:1046300001D9194A1360194A03EB830302EB830380
:104640005B68A3609868E06041609960E36A03EB8F
:104650008301880002EB8101616111580131115021
:10466000E26A0F4B1B68DB6A9A4202D90D4B0122AA
:104670001A6010BD4FF03F0383F31188BFF36F8FB3
:10468000BFF34F8F01BEB0E782685A60B6E7E268B9
:104690005A60C4E75834000860340008C433000886
:1046A000B8330008E0340008F8B50C460546A8B158
:1046B000F4B1FEF7AFFB1D4B19686B68C81A22688E
:1046C000B2F1FF3F2CD01A4E36682F68B74219D08E
:1046D0008B4217D800232360012422E04FF03F03D0
:1046E00083F31188BFF36F8FBFF34F8F01BEDFE7F6
:1046F0004FF03F0383F31188BFF36F8FBFF34F8FEA
:1047000001BED6E7824203D800232360012408E0DB
:104710005B1A13442360284600F0AAF9002400E045
:104720000024FEF799FB2046F8BD00BFDC340008EA
:1047300094340008014B01221A607047E0340008ED
:104740000C4B1B6873B90C4B1B686BB90B4B1B688C
:1047500063B90B4B1A680B4B1B68013B9A4207D09D
:1047600001207047002070470020704700207047EC
:10477000022070479C340008E03400089834000898
:10478000B434000850340008014B1868704700BF6B
:10479000B8330008054B1B6833B1054B1B680BB1E0
:1047A000002070470220704701207047B034000895
:1047B000583400082DE9F04780460D4617469946C3
:1047C000089EDDF824A00A9C9200A521206B09F028
:1047D000A9FA236B07F18042013A03EB820727F025
:1047E00007078DB14FF0000CBCF10F0F09D815F879
:1047F0000C3004EB0C0282F8343013B10CF1010CD4
:10480000F2E7002384F84330062E08D94FF03F0327
:1048100083F31188BFF36F8FBFF34F8F01BE062E56
:1048200000D90626E662E664201DFEF73CFA04F194
:104830001800FEF738FA2461C6F10706A661646223
:104840004C22002104F1680009F06CFA094BE36680
:1048500003F168022267D03363674A46414638460F
:10486000FEF7B0FA2060BAF1000F01D0CAF800409C
:10487000BDE8F087B03A000838B5002407E004EB43
:10488000840293000E481844FEF702FA0134062C05
:10489000F5D90C4D2846FEF7FBF90B4C2046FEF7E8
:1048A000F7F90A48FEF7F4F90948FEF7F1F9094863
:1048B000FEF7EEF9084B1D60084B1C6038BD00BFC9
:1048C000C433000864340008783400089C340008BD
:1048D000C8340008B4340008BC330008C0330008F2
:1048E00010B50446683009F039FA94F8B9306BB164
:1048F000012B12D0022B08D04FF03F0383F3118815
:10490000BFF36F8FBFF34F8F01BE10BD206BFEF75B
:10491000EFFB2046FEF7ECFBF7E72046FEF7E8FB4F
:10492000F3E700000F4B1B68D3B110B5FEF772FA26
:104930000D4BDB68DC68201DFEF7C3F90B4A1368DA
:10494000013B1360074A1368013B1360FEF784FACA
:104950002046FFF7C5FF034B1B68002BE6D110BDB7
:10496000704700BF54340008C834000850340008B1
:104970002DE9F04387B081460E46174698460F9DB5
:10498000109C65B3002C34D0BC220492049ABC2A3B
:1049900008D04FF03F0383F31188BFF36F8FBFF34D
:1049A0004F8F01BE049B74B36DB3BC22002120461F
:1049B00009F0B8F92563022384F8B9300023039382
:1049C000029405AB01930E9B009343463A46314651
:1049D0004846FFF7EFFE2046FFF7F8F815E04FF0E6
:1049E0003F0383F31188BFF36F8FBFF34F8F01BE77
:1049F000C8E74FF03F0383F31188BFF36F8FBFF316
:104A00004F8F01BEC0E700230593059807B0BDE8AE
:104A1000F0830000024A136801331360704700BF3F
:104A200058340008014B1868704700BFDC34000898
:104A3000014B1868704700BF5034000810B50C4691
:104A400048B10A4B19681831FEF74EF9012120468A
:104A5000FFF720F910BD4FF03F0383F31188BFF338
:104A60006F8FBFF34F8F01BEEBE700BFB833000875
:104A7000034B1B680360034B1B684360704700BF18
:104A800094340008DC34000800284BD038B50446C4
:104A9000C36A264A1268D26A93423BD28269002ACC
:104AA00005DB224A1268D26AC2F10702826161699B
:104AB00003EB83031E4A02EB8303994205D01B4B91
:104AC0001B68DB6AE362012038BD251D2846FEF71E
:104AD000F8F8164B1B68DB6AE362164A12689342C9
:104AE00001D9144A1360124A03EB830302EB8303D8
:104AF0005B68A3609968E1604D609D60E36A03EBC9
:104B00008301880002EB810161611158013111506C
:104B10000120D9E7C26C054B1B68DB6A9A4203D3BC
:104B20000020D1E7002070470120CDE7B83300080E
:104B3000C433000860340008002849D038B5044662
:104B4000254B1B68834208D04FF03F0383F3118845
:104B5000BFF36F8FBFF34F8F01BE236D43B94FF08B
:104B60003F0383F31188BFF36F8FBFF34F8F01BEF5
:104B7000236D013B2365E16AE26C91422AD00BB1BF
:104B8000002038BD251D2846FEF79BF8E36CE36244
:104B9000C3F10702A261114A1268934201D90F4A78
:104BA00013600F4A03EB830302EB83035B68A3608C
:104BB0009968E1604D609D60E36A03EB83018800C2
:104BC00002EB810161611158013111500120D8E7D8
:104BD000002070470020D4E7B83300086034000894
:104BE000C4330008002856D038B50446036D43B9D5
:104BF0004FF03F0383F31188BFF36F8FBFF34F8FE5
:104C000001BEE36C8B4200D20B46E26A9A4202D0AC
:104C1000226D012A00D038BD1F4A1268A24230D04E
:104C2000E26AE362A169002902DBC3F10703A36121
:104C3000616902EB8202194B03EB82039942EAD1CC
:104C4000251D2846FEF73DF8E36A154A126893428F
:104C500001D9134A1360114A03EB830302EB830368
:104C60005B68A3609968E1604D609D60E36A03EB57
:104C70008301880002EB81016161115801311150FB
:104C8000C9E74FF03F0282F31188BFF36F8FBFF384
:104C90004F8F01BEC4E77047B8330008C433000823
:104CA00060340008054B1B6823B1044B1A68136D70
:104CB00001331365014B1868704700BFB833000813
:104CC000064B1A6813682BB90123036023B9D36814
:104CD000186870470023F8E700207047E4340008A4
:104CE00008B54160006191420CD8D21A83699A429A
:104CF00001D3012008BD011D094B1868FDF7F4FF21
:104D00000020F7E79A4201D2994206D2011D054BD5
:104D10001868FDF7E9FF0020ECE70120EAE700BF93
:104D2000E8340008E434000870B504460D46164621
:104D300004E0A3691D44236A20469847A1692B46D5
:104D4000324629442046FFF7CBFF0028F1D170BD41
:104D500070B505460E460D4B1B68DB68DC68201DF0
:104D6000FDF7AFFF94F8283013F0040F07D123F0BC
:104D7000010384F82830236A2046984770BD3246E4
:104D800029462046FFF7D0FFF5E700BFE4340008CE
:104D900008B505E0DB684FF0FF311868FFF7D8FF72
:104DA000054B1B681A68002AF4D1044A10680249AE
:104DB0000860136008BD00BFE4340008E834000850
:104DC00038B50546FFF72EFE0446074B1B688342A5
:104DD00005D800232B60044B1C60204638BDFFF72C
:104DE000D7FF01232B60F6E7B435000870B582B019
:104DF00006460C46FFF70EFE01A8FFF7E1FF019BF8
:104E000033BB05460CB9B04219D224B1124A12681C
:104E10001268DAB901242246711B104B1868FEF79C
:104E2000A4FDFFF719F9A8B94FF0E0234FF0805225
:104E3000C3F8042DBFF34F8FBFF36F8F0AE0FFF766
:104E40000BF929463046FFF783FF03E01C46E2E7F3
:104E5000FFF702F902B070BDE83400080836000818
:104E600030B587B002E0029B002B0FDA002202A9C6
:104E70003B4B1868FEF7C4FB00286FD0029B002B49
:104E8000F1DA05990498039B9847ECE7049C636961
:104E900013B1201DFDF715FF01A8FFF791FF05468F
:104EA000029B013B082BE1D8DFE803F00505293020
:104EB0004A050529300094F8283043F0010384F8AE
:104EC0002830039BA169024619442046FFF708FFDA
:104ED0000028CBD094F8283013F0040F07D123F02A
:104EE000010384F82830236A20469847BEE7A36967
:104EF0002A46039919442046FFF716FFF3E794F872
:104F0000283023F0010384F82830AFE794F82830E4
:104F100043F0010384F82830039BA36143B94FF0A9
:104F20003F0383F31188BFF36F8FBFF34F8F01BE31
:104F3000A1692B462A4629442046FFF7D1FE95E772
:104F400094F8283013F0020F04D023F0010384F802
:104F500028308BE72046FEF7CBF887E707B030BD57
:104F60000836000800B583B001A8FFF7A9FE019933
:104F7000FFF73CFFFFF774FFF6E7000030B583B0A2
:104F8000FDF748FF114B1B681BB1FDF765FF03B030
:104F900030BD0F4D2846FDF77BFE0E4C2046FDF739
:104FA00077FE0D4B1D600D4B1C60002300930C4BD6
:104FB0000C4A10210A20FEF76BFD044B18600028F4
:104FC000E3D00949FEF79EFDDFE700BF0836000881
:104FD0008C350008A0350008E4340008E8340008E7
:104FE000B8350008EC340008E403011010B588B0AF
:104FF000FFF7C4FF134B1B68C3B10024059406944C
:1050000007AA06A905A8FDF7B7FD059B0293069B15
:105010000193032300932346079A0B490B48FFF79C
:10502000A7FC0B4B186008B1012009E04FF03F03CB
:1050300083F31188BFF36F8FBFF34F8F01BE002042
:1050400008B010BD08360008EC030110654F0010D1
:105050000C36000801BE0148704700BF020202047E
:1050600001BE0148704700BF0202020401BE0148B0
:10507000704700BF0202020401207047024B0B6020
:10508000092313600020704764230008024B0B6063
:1050900002231360002070478823000808B5407879
:1050A00006F024FB08BD000038B5054614468A42C8
:1050B00094BF00230123834209D080F001038A4278
:1050C0002CBF002101218B4201D04DB138BD07F02A
:1050D00065F9054BA3FB0431890C06F06BFCF4E782
:1050E000FDF794F9F2E700BF83DE1B4308B50B78A8
:1050F000092B04D00B2B07D001BE064803E000208B
:1051000005F0D8FC002008BD012005F0D3FC0020EC
:10511000F9E700BF0102020408B505F0DBFC012835
:1051200002D901BE002008BD4FF40040FBE708B5DE
:10513000FFF7F2FF08BD00002DE9F04104460A78B0
:10514000A2F10D03DBB2012B04D90F2A2FD14E7827
:10515000013600E04E78002005F08EFD0746002065
:1051600005F058FD06F0A2FA20FA07F8304606F0DE
:105170009DFA20FA07F763786BB1F1B2607805F019
:1051800029FD054663789BB958B93A464146002047
:10519000FFF78AFF0CE03A4641460120FFF784FF03
:1051A000EBE7424639460020FFF77EFF00E0024D64
:1051B0002846BDE8F08100BF01020204F8B50546AB
:1051C0000139072935D8DFE801F0042634063434E4
:1051D0003424002600E00226002005F04DFD07469D
:1051E000002005F017FD06F061FA20FA07F720FA13
:1051F00006F46B788BB13146687805F01DFD0646E4
:105200006B78BBB978B9224639460020FFF74CFFCE
:1052100010E00326E0E70126DEE7224639460120BA
:10522000FFF742FFE7E73A4621460020FFF73CFF41
:1052300000E0014E3046F8BD0002020408B519B185
:10524000407805F081FC08BD407805F0A7FCFAE73E
:1052500008B5407805F090FC08BD00002DE9F84342
:1052600004460E461546DDF82080DDF8249001271F
:105270009F404FEA520C1CEB00004FF0000341F13D
:10528000000107F0CDFCC9F80000B84201D9C9F807
:105290000070B8F1000F1AD098F80070D9F800200B
:1052A00000232046314607F0BBFC0246294638461B
:1052B00002F07EFD0028B8BF4042B8F1000F08D0D0
:1052C000D8F80430834206D30020BDE8F8830020DC
:1052D000F3E70020F9E70148F7E700BF0002020406
:1052E00008B590F800C01CF0020F06D14A1E4178A4
:1052F0000CF0030005F0AAF908BD00234A1E41780E
:105300000CF0030005F006FAF6E770B584B0044629
:105310000D46164606F0FAF90146237813F0020FFF
:105320000ED013F0010F24D01D2303AA0192009682
:105330002A464801C90EFFF791FFE0B104B070BDE5
:1053400013F0010F13D0102303AA019200962A46EE
:1053500008460021FFF782FF0028EFD12078039A4A
:10536000013A617800F0030005F070F9E6E70823E0
:10537000EAE71523D9E7039B5A09207803F01F03B6
:10538000013A617800F0030005F0C4F9D6E708B5EA
:105390000378417803F0030006F0D1F908BD08B5A1
:1053A00031B10378417803F0030005F09BFA08BDA2
:1053B0000378417803F0030005F0D6FAF7E708B563
:1053C0000378417803F0030005F000FB08BD0000FE
:1053D000004870472C0C01102DE9F04182B00746BF
:1053E0000D469046084602F011FDC6B2002401E0C9
:1053F0000134E4B2B44213D205238DF804308DF8A1
:1054000005508DF8064001A800F090FB03460028E7
:10541000EED13D707C700122BA70C7F8048000E0C4
:10542000024B184602B0BDE8F08100BF020D020435
:1054300030B583B00C46054678B184B105238DF8AC
:10544000043023788DF8053063788DF8063001A894
:1054500000F06CFB28B103B030BD01BEEDE701BE2A
:10546000ECE7226863682A606B600123AB70F2E7A7
:1054700008B5034648B11A78122A08D0032A0AD977
:105480005A6812681846904708BD01BEF3E71846EF
:10549000FFF7DEFEF8E71846FFF791FFF4E710B5D7
:1054A000034648B11878122808D003280AD958684A
:1054B00044681846A04710BD01BEF3E71846FFF741
:1054C000BDFEF8E71846FFF76AFFF4E710B504469B
:1054D00068B12046FFF7CCFF98B12378122B08D093
:1054E000032B0AD963689B68204698470AE001BEEF
:1054F000EFE72046FFF7D2FD04E02046FFF747FF25
:1055000000E0002010BD10B5034648B118781228FD
:1055100008D003280AD95868C4681846A04710BDA7
:1055200001BEF3E71846FFF79BFDF8E71846FFF7C3
:10553000ECFEF4E708B5034648B11A78122A08D001
:10554000032A0AD95A6812691846904708BD01BE55
:10555000F3E71846FFF732FEF8E71846FFF7C0FEFC
:10556000F4E710B582B0044690B1A37803B901BE48
:1055700005238DF8043023788DF8053063788DF895
:10558000063001A800F016FB0023A37002B010BD86
:1055900001BEEAE708B5034648B11A78082A08D0E0
:1055A000092A00D001BE184600F0B0F908BD01BEBE
:1055B000F3E7184600F0AEF8F8E708B5034648B13F
:1055C0001878082808D0092800D001BE184600F035
:1055D000E3F908BD01BEF3E7184600F0D7F8F8E795
:1055E00008B5034648B11A78082A08D0092A00D01D
:1055F00001BE184600F0F0F908BD01BEF3E71846F9
:1056000000F0F4F8F8E710B50446B8B12046FFF70B
:10561000C1FF00B101BE02212046FFF7E1FF00B14A
:1056200001BEB4F8781059B92378082B10D023782C
:10563000092B11D094F87A3093B110BD01BEE5E783
:1056400002222046FFF7B9FF0028EDD001BEEBE7AC
:10565000204600F021F8EAE7204600F009F9E9E7E2
:10566000204600F0A7FAE8E70023032B06D8054AF6
:1056700052F8232022B90133DBB2F6E7002070474D
:1056800001207047103600088000C0B20844C0B244
:105690000230C0B27047000010B50446443002F03A
:1056A000A1FCA178164802F0A7FC63789B00DBB24E
:1056B000A2781344DBB203F134010B4601F01F0161
:1056C0005B0901228A4020330E4941F82320BFF3B1
:1056D0004F8FBFF36F8F62789200D2B2A3781344DA
:1056E000DBB2094A002142F82310FFF7BDFF00B1E9
:1056F00010BD064801F0CAFC054B00221A70F7E7FE
:1057000000002A4000E100E0103600089023000865
:1057100020360008054B9B68DBB2817801228A4065
:105720001A4214BF01200020704700BF00002A4029
:1057300038B5022922D0082920D0012914D001BE71
:1057400019E000231D430134E4B2032C0FD875B9CE
:105750000C4B53F824000028F3D0FFF7DBFF08B10F
:105760000123EFE70023EDE700242546EDE785F070
:105770000105054B1D70044B187838BD024B002203
:105780001A70F8E71036000820360008022A27D8D9
:1057900010B50C468378032B00D901BE1149103394
:1057A0001B02CA5822F00042CA50436C23F0C003C7
:1057B000436443F0800343648378032B00D901BE24
:1057C000084910331B02CA5842F00042CA5081787F
:1057D0004078FFF759FF0146204600F08DFE10BDCE
:1057E0000148704700002A400106020402291ED821
:1057F0008378032B00D901BE0E4910331B02CA580F
:1058000022F00042CA50436C23F03003436443F05B
:10581000300343648378032B00D901BE054910335C
:105820001B02CA5842F00042CA500020704702488A
:10583000704700BF00002A40010602040023392BF4
:1058400006D8054A52F8232022B90133DBB2F6E725
:10585000002070470120704724360008C0EBC003C9
:1058600000EB830051FA80F0C0B20630C0B270473E
:1058700010B50446443002F067FB63784BBB1D480B
:10588000A17802F06DFB627812B9A3781C2B22D9A3
:10589000012A22D001BE40F2FF3303F01F015B0951
:1058A00001228A402033144941F82320BFF34F8F4F
:1058B000BFF36F8F6378C3EBC30203EB8203A2785D
:1058C00013440E4A002142F82310FFF7B7FF48B1F6
:1058D00010BD0B48D4E73833DFE7A3781C2BD9D8A9
:1058E0005533DAE7074801F0D1FB074B00221A7065
:1058F000EEE700BF0000284000E100E02436000889
:1059000000002940A02300080C37000843786BB939
:10591000074B084A1268B2F85E100B448178B2F85F
:10592000602002FB01335868C00F7047024BF0E75C
:1059300000002840543800080000294038B50229EA
:1059400022D0082920D0012914D001BE19E000235B
:105950001D430134E4B2392C0FD875B90C4B53F800
:1059600024000028F3D0FFF7D1FF08B10123EFE7AF
:105970000023EDE700242546EDE785F00105054B02
:105980001D70044B187838BD024B00221A70F8E7DE
:10599000243600080C370008022A19D838B5044606
:1059A0000D46B0F8783003B901BE636C23F0C00334
:1059B000636443F080036364A1786078FFF74EFF6F
:1059C0000146284600F098FD08B9A4F8780038BDD3
:1059D0000048704701060204022908D8436C23F0EE
:1059E0003003436443F030034364002070470148B0
:1059F000704700BF0106020470B504280DD00D46A3
:105A0000114602463C4C34F810E0441C1D2C07D8CB
:105A1000E4B2394E36F8144004E00D250520F0E7D5
:105A200040F231144FF0010C0CFA02FC334A0CEA3C
:105A300002023AB9AE44A3F800E01B88A34258D250
:105A4000002070BDC21E182A32D8DFE802F00D31E6
:105A50003431310F25312931313131312B312D3173
:105A600031313131312F2700254A00E0254A1C8091
:105A7000002AE2D00338182836D8DFE800F01E35B7
:105A80003835351E2F353135353535351E351E3512
:105A90003535353535331E001B4AE8E71B4AE6E746
:105AA0001B4AE4E71B4AE2E71B4AE0E71B4ADEE742
:105AB00001BE0022DBE71A4AD9E70126B542BCD273
:105AC00032F81500704411FA80F11980691CB14256
:105AD000B3DA32F811407444A4B2AEE70226EDE71F
:105AE0001026EBE70226E9E701BE0026E6E71A26C4
:105AF000E4E70C48A5E700BFFC0C0110280B0A0CDA
:105B00008C0C0110C40C0110C80C0110F80C011011
:105B1000CC0C0110EC0C0110F00C0110F40C011075
:105B2000900C0110000D020400207047F0B583B006
:105B300004460027FCF7E1FF06460DF10603A278B4
:105B400061782078FFF758FF054668B9BDF8063040
:105B5000C3F3C70203F007031449895C012202FA68
:105B600003F3194218BF174605B9EFB92DB13046F6
:105B7000FCF7C7FF284603B0F0BD0DF10603A2787D
:105B800061782078FFF738FF05460028EFD1BDF88F
:105B90000630C3F3C70103F00703044801229A400B
:105BA000435C13434354E2E7014DE0E7103700083C
:105BB000010D020430B583B00446FCF79EFF054694
:105BC0000DF10603A27861782078FFF715FF0146F2
:105BD00068B9BDF80630C3F3C70003F00702074CED
:105BE00001239340DB435BB2225C1340235401B199
:105BF00001BE2846FCF785FF03B030BD1037000812
:105C00002DE9F04782B006468846174699461E237E
:105C10000371FF230372C37100230375534B1D6887
:105C2000FF2906D1FF2F0BD1002D00F09780002413
:105C30000FE015224E49404601F05AF80540F1E7C1
:105C400015224C49384601F053F80540ECE7013481
:105C5000E4B225FA04FC1CF0010FF8D017238DF8EC
:105C600004308DF8054000238DF8063001AB152275
:105C70003F49404600F0FAFF054601AB15223D4979
:105C8000384600F0F3FF8246002D69D0002869D025
:105C90002A7803789A4223D00023002B64D017235C
:105CA0008DF80030204600F0E7FE8DF8010000235B
:105CB0008DF802306846FFF739FF0446C0B16CB377
:105CC00044B9B9F1000F32D006F10C0399E8030092
:105CD00083E80300002C37D0204602B0BDE8F087EF
:105CE0006A7843789A4201D00023D6E70123D4E7AB
:105CF0009DF8050000F0C0FE1F4B53F820303360C4
:105D0000019BB3801B0CB3710C21284601F0DBFF13
:105D100004460028D3D186F80780D0E70C215046EE
:105D200001F0D1FF04460028CAD13772C8E7012329
:105D30001A46311D06F10C0002F086F80446B0FA4E
:105D400080F35B093375C5E700230C4A0121304617
:105D500000F0ECFE0028BFD1094CBDE7094CBBE7C1
:105D6000084CB9E7074CB7E7064CB5E7700D0110D2
:105D700048040110F4030110740D0110A086010005
:105D8000010902040009020470B504460368CBB19E
:105D90000023A4F88A3084F88C30C4F89030C4F81A
:105DA0009430C4F89830C4F89C30224652F8180B4E
:105DB00003F012FB0546607900F05EFE06461DB159
:105DC000284670BD01BEE3E7144A2146607900F021
:105DD000C7FF2268136843F0004313600023C4F830
:105DE000A030C4F8A430C4F8A830C4F8AC30C4F86B
:105DF000843084F888300A4B33F91640094A03216D
:105E0000204600F0CBFB002CDADB04F01F02640913
:105E100001239340044A42F82430D1E7895E001000
:105E2000B80D01102D5E001000E100E070B5154DB9
:105E30002E6800F067FE04462860054655F8180BEA
:105E4000294604F036F8B4F88A3013B90D4B1E60B9
:105E500070BD2946206803F061FD10F4803FF5D144
:105E6000B4F88A30032B03D00023A4F88A30EDE77E
:105E70000123A4F88A30214651F8640B2A4603F026
:105E80004FFDE3E73837000800B583B00B461146F5
:105E900050F8182B00920190022B05D0042B03D050
:105EA000082B0AD0012005E0684603F083FBB0FA16
:105EB00080F0400903B05DF804FB684603F0DCFBAA
:105EC000B0FA80F04009F5E730B583B0044690B1F0
:105ED000206840B104F1180103F060FB206803F072
:105EE00037FB0023236023791E2B06D194F8B030B2
:105EF0009BB303B030BD01BEEAE7607900F0BCFDA2
:105F0000054600221146607900F02AFF1A4B33F94A
:105F10001530002B0CDB03F01F015B0901228A40C6
:105F20002033164941F82320BFF34F8FBFF36F8F03
:105F300094F8B03013B11E232371D7E717238DF8DF
:105F40000430607900F098FD8DF80500A3798DF894
:105F5000063001A8FFF72EFEEDE7E01D01F0A8FED8
:105F600004F1080001F0A4FE237D002BC1D004F150
:105F70000C00FFF7F6FABCE7B80D011000E100E0F5
:105F8000F8B50D4616461F46044688B1002184F830
:105F9000B010B422204607F0C5FE3B4632462946E3
:105FA0002046FFF72DFE054620B14DB92846F8BD25
:105FB00001BEEBE704492046FFF7E6FE0546F4E79D
:105FC0002046FFF781FFF1E7380D0110F0B587B0EB
:105FD0000C46074660B36CB374B33E4656F8180BD4
:105FE000314603F0DBFA0DF1040C1E4D0FCDACE889
:105FF0000F002B68CCF800302378FBB101238DF81B
:106000000430A3788DF8073023783BB1637A8DF89C
:1060100009308DF80A30237A8DF80830324601A90C
:10602000386803F0D9F9054650B1284607B0F0BDED
:1060300001BED0E701BECFE701BECEE70223DEE717
:10604000237862680121384600F070FD28B13A6873
:10605000136843F000431360E7E7386803F078FA09
:10606000014DE2E7380D01100109020400B585B0C9
:10607000024688B191B101AB03C983E80300FE2158
:106080008DF80C1000218DF80D1019461046FFF701
:106090009DFF05B05DF804FB01BEEBE701BEEAE73A
:1060A0002DE9F04383B006460F4615461C46DDF841
:1060B00028809DF82C9000F04DFE002837D1F36920
:1060C000B3F1805F11D0334653F8180B0093434669
:1060D0000022394603F02CFD07468FB1B9F1000FBD
:1060E0001ED1384603B0BDE8F083334653F8180B91
:1060F000009343460022394603F0B4FC0746ECE720
:10610000002CEBD0334653F8180B4246297803F0A5
:10611000E3FD07460028E1D1013CA4B20135EFE7D9
:10612000324652F8180B414603F05EFDD9E7014FA5
:10613000D7E700BF031A02042DE9F04782B00646F4
:10614000884615461C460A9F9DF82C9000F002FEDA
:10615000002842D1F369B3F1805F13D0334653F87E
:10616000180B00933B460122414603F0E1FC8246B6
:10617000BAF1000F27D0B9F1000F27D1504602B075
:10618000BDE8F087334653F8180B00933B460122D5
:10619000414603F067FC8246EAE7334653F8180BA2
:1061A00000933B462A46414603F04AFD82460028BA
:1061B000E1D1013CA4B20135002CDCD0012CECD1A2
:1061C0004FF00108E9E74FF00008F5E7324652F8D2
:1061D000180B394603F008FDD0E7DFF804A0CDE73F
:1061E000031A02042DE9F04784B007468A46914617
:1061F00098460C9DBDF834400E9E00F0ABFD90BB60
:10620000B8F1010F14D0B8F1020F2FD14FEA1923C2
:106210008DF80C308DF80D900023019300964346C5
:1062200003AA51463846FFF73BFF804630B116E0DF
:106230008DF80C90F0E7013CA4B201354CB13B461F
:1062400053F8180B3246297803F046FD80460028A3
:10625000F1D03A4652F8180B314603F0C5FC4046DF
:1062600004B0BDE8F087DFF80C80F8E7DFF80880BD
:10627000F5E700BF031A020402090204F0B585B075
:1062800006460F4615461C4600F064FD20BB012C57
:1062900013D0022C22D12B0A8DF80C308DF80D5022
:1062A000002301930C9B0093234603AA39463046F2
:1062B000FFF7F6FE20B105B0F0BD8DF80C50EFE70A
:1062C000012301930C9B0093BDF82C300A9A3946A8
:1062D0003046FFF731FFEEE70148ECE70148EAE717
:1062E000031A02040209020402460023184603B1FD
:1062F000704702B118460133DBB2F8E710B5044627
:10630000FFF7F2FF204610BD002001E00130C0B2CF
:10631000102805D8044B1B5C002BF7D040B2704707
:106320004FF0FF30704700BF3006011038B504460B
:106330000D46FFF7E9FF114B1B5D83B1104B1A6847
:106340009368B2F870100B44201A1030B2F8722023
:1063500002FB00F000EB8501C858C0B238BD084B05
:106360001A689368B2F870100B44B2F8722002FBFE
:1063700004F404EB8501C858EFE700BF30060110B4
:10638000543800082DE9F84304461E469DF8208045
:106390009DF82470224B1B5CC3B1411ACCB220463D
:1063A000FFF7ACFF46EA00262046FFF79DFF46EACE
:1063B000004040F0804040F4805027B14246002128
:1063C00006F034F923E006F07FF920E01546FFF7E8
:1063D00095FF4FEA002945EA00252046FFF784FF94
:1063E00045EA004549EA060949EA004949F0804181
:1063F0007FB90C4B19688B68B1F870201A44B1F85A
:10640000723003FB04F404EB860300209850BDE8CF
:10641000F88343460022284606F0ACF8F7E700BFB1
:1064200030060110543800082DE9F04782B00C46C0
:106430009046C0F3470600F00107FFF765FF81466D
:10644000264B1D5D1B57002B14DB102D3FD8244B12
:1064500013F804A000242A46224B33F81530A34237
:1064600031D9214B53F825301B5DB34208D001349C
